{
  "address": "0xaAAf7338355D89b84Af24447b125A5d66Ac2196c",
  "abi": [
    {
      "inputs": [
        {
          "internalType": "contract Timestamp",
          "name": "_timestamp",
          "type": "address"
        },
        {
          "internalType": "contract IERC20",
          "name": "_acceptedToken",
          "type": "address"
        },
        {
          "internalType": "contract RewardCalculator",
          "name": "_rewardCalculator",
          "type": "address"
        },
        {
          "internalType": "string",
          "name": "_tokenName",
          "type": "string"
        },
        {
          "internalType": "string",
          "name": "_tokenSymbol",
          "type": "string"
        },
        {
          "internalType": "bytes16",
          "name": "_interestRate",
          "type": "bytes16"
        },
        {
          "internalType": "bytes16",
          "name": "_multiplier",
          "type": "bytes16"
        },
        {
          "internalType": "uint256",
          "name": "_lockTime",
          "type": "uint256"
        },
        {
          "internalType": "address[]",
          "name": "_payees",
          "type": "address[]"
        },
        {
          "internalType": "uint256[]",
          "name": "_shares",
          "type": "uint256[]"
        }
      ],
      "stateMutability": "nonpayable",
      "type": "constructor"
    },
    {
      "anonymous": false,
      "inputs": [
        {
          "indexed": false,
          "internalType": "address",
          "name": "depositor",
          "type": "address"
        },
        {
          "indexed": false,
          "internalType": "uint256",
          "name": "amount",
          "type": "uint256"
        }
      ],
      "name": "AcceptedTokenDeposit",
      "type": "event"
    },
    {
      "anonymous": false,
      "inputs": [
        {
          "indexed": true,
          "internalType": "address",
          "name": "previousOwner",
          "type": "address"
        },
        {
          "indexed": true,
          "internalType": "address",
          "name": "newOwner",
          "type": "address"
        }
      ],
      "name": "OwnershipTransferred",
      "type": "event"
    },
    {
      "anonymous": false,
      "inputs": [
        {
          "indexed": false,
          "internalType": "address",
          "name": "account",
          "type": "address"
        },
        {
          "indexed": false,
          "internalType": "uint256",
          "name": "shares",
          "type": "uint256"
        }
      ],
      "name": "PayeeAdded",
      "type": "event"
    },
    {
      "anonymous": false,
      "inputs": [
        {
          "indexed": false,
          "internalType": "address",
          "name": "account",
          "type": "address"
        }
      ],
      "name": "PayeeRemoved",
      "type": "event"
    },
    {
      "anonymous": false,
      "inputs": [
        {
          "indexed": false,
          "internalType": "address",
          "name": "account",
          "type": "address"
        },
        {
          "indexed": false,
          "internalType": "int256",
          "name": "shares",
          "type": "int256"
        }
      ],
      "name": "PayeeUpdated",
      "type": "event"
    },
    {
      "anonymous": false,
      "inputs": [
        {
          "indexed": false,
          "internalType": "address",
          "name": "to",
          "type": "address"
        },
        {
          "indexed": false,
          "internalType": "uint256",
          "name": "amount",
          "type": "uint256"
        }
      ],
      "name": "PaymentReleased",
      "type": "event"
    },
    {
      "anonymous": false,
      "inputs": [
        {
          "indexed": false,
          "internalType": "address",
          "name": "transferrer",
          "type": "address"
        },
        {
          "indexed": false,
          "internalType": "address",
          "name": "to",
          "type": "address"
        },
        {
          "indexed": false,
          "internalType": "uint256",
          "name": "sharesAmount",
          "type": "uint256"
        }
      ],
      "name": "SharesTransferred",
      "type": "event"
    },
    {
      "anonymous": false,
      "inputs": [
        {
          "indexed": false,
          "internalType": "address",
          "name": "burner",
          "type": "address"
        },
        {
          "indexed": false,
          "internalType": "uint256",
          "name": "amount",
          "type": "uint256"
        }
      ],
      "name": "YieldFarmingTokenBurn",
      "type": "event"
    },
    {
      "anonymous": false,
      "inputs": [
        {
          "indexed": false,
          "internalType": "address",
          "name": "releaser",
          "type": "address"
        },
        {
          "indexed": false,
          "internalType": "uint256",
          "name": "amount",
          "type": "uint256"
        }
      ],
      "name": "YieldFarmingTokenRelease",
      "type": "event"
    },
    {
      "inputs": [
        {
          "internalType": "address",
          "name": "account",
          "type": "address"
        },
        {
          "internalType": "uint256",
          "name": "_shares",
          "type": "uint256"
        }
      ],
      "name": "addPayee",
      "outputs": [],
      "stateMutability": "nonpayable",
      "type": "function"
    },
    {
      "inputs": [
        {
          "internalType": "uint256",
          "name": "amount",
          "type": "uint256"
        }
      ],
      "name": "burn",
      "outputs": [],
      "stateMutability": "nonpayable",
      "type": "function"
    },
    {
      "inputs": [
        {
          "internalType": "uint256",
          "name": "amount",
          "type": "uint256"
        }
      ],
      "name": "deposit",
      "outputs": [],
      "stateMutability": "nonpayable",
      "type": "function"
    },
    {
      "inputs": [],
      "name": "getMyTokenTimeLock",
      "outputs": [
        {
          "internalType": "contract TokenTimeLock",
          "name": "",
          "type": "address"
        }
      ],
      "stateMutability": "view",
      "type": "function"
    },
    {
      "inputs": [
        {
          "internalType": "address",
          "name": "account",
          "type": "address"
        }
      ],
      "name": "isPayee",
      "outputs": [
        {
          "internalType": "bool",
          "name": "",
          "type": "bool"
        }
      ],
      "stateMutability": "view",
      "type": "function"
    },
    {
      "inputs": [],
      "name": "owner",
      "outputs": [
        {
          "internalType": "address",
          "name": "",
          "type": "address"
        }
      ],
      "stateMutability": "view",
      "type": "function"
    },
    {
      "inputs": [
        {
          "internalType": "uint256",
          "name": "index",
          "type": "uint256"
        }
      ],
      "name": "payee",
      "outputs": [
        {
          "internalType": "address",
          "name": "",
          "type": "address"
        }
      ],
      "stateMutability": "view",
      "type": "function"
    },
    {
      "inputs": [
        {
          "internalType": "address",
          "name": "account",
          "type": "address"
        }
      ],
      "name": "record",
      "outputs": [
        {
          "components": [
            {
              "internalType": "uint256",
              "name": "shares",
              "type": "uint256"
            },
            {
              "internalType": "uint256",
              "name": "released",
              "type": "uint256"
            }
          ],
          "internalType": "struct Record",
          "name": "",
          "type": "tuple"
        }
      ],
      "stateMutability": "view",
      "type": "function"
    },
    {
      "inputs": [
        {
          "internalType": "address",
          "name": "account",
          "type": "address"
        }
      ],
      "name": "release",
      "outputs": [],
      "stateMutability": "nonpayable",
      "type": "function"
    },
    {
      "inputs": [],
      "name": "releaseTokens",
      "outputs": [],
      "stateMutability": "nonpayable",
      "type": "function"
    },
    {
      "inputs": [
        {
          "internalType": "address",
          "name": "account",
          "type": "address"
        }
      ],
      "name": "released",
      "outputs": [
        {
          "internalType": "uint256",
          "name": "",
          "type": "uint256"
        }
      ],
      "stateMutability": "view",
      "type": "function"
    },
    {
      "inputs": [
        {
          "internalType": "address",
          "name": "account",
          "type": "address"
        }
      ],
      "name": "removePayee",
      "outputs": [],
      "stateMutability": "nonpayable",
      "type": "function"
    },
    {
      "inputs": [],
      "name": "renounceOwnership",
      "outputs": [],
      "stateMutability": "nonpayable",
      "type": "function"
    },
    {
      "inputs": [
        {
          "internalType": "address",
          "name": "account",
          "type": "address"
        }
      ],
      "name": "shares",
      "outputs": [
        {
          "internalType": "uint256",
          "name": "",
          "type": "uint256"
        }
      ],
      "stateMutability": "view",
      "type": "function"
    },
    {
      "inputs": [],
      "name": "totalReleased",
      "outputs": [
        {
          "internalType": "uint256",
          "name": "",
          "type": "uint256"
        }
      ],
      "stateMutability": "view",
      "type": "function"
    },
    {
      "inputs": [],
      "name": "totalShares",
      "outputs": [
        {
          "internalType": "uint256",
          "name": "",
          "type": "uint256"
        }
      ],
      "stateMutability": "view",
      "type": "function"
    },
    {
      "inputs": [
        {
          "internalType": "address",
          "name": "newOwner",
          "type": "address"
        }
      ],
      "name": "transferOwnership",
      "outputs": [],
      "stateMutability": "nonpayable",
      "type": "function"
    },
    {
      "inputs": [
        {
          "internalType": "address",
          "name": "to",
          "type": "address"
        },
        {
          "internalType": "uint256",
          "name": "sharesAmount",
          "type": "uint256"
        }
      ],
      "name": "transferShares",
      "outputs": [],
      "stateMutability": "nonpayable",
      "type": "function"
    },
    {
      "inputs": [
        {
          "internalType": "address",
          "name": "account",
          "type": "address"
        },
        {
          "internalType": "uint256",
          "name": "_shares",
          "type": "uint256"
        }
      ],
      "name": "updatePayee",
      "outputs": [],
      "stateMutability": "nonpayable",
      "type": "function"
    },
    {
      "inputs": [
        {
          "internalType": "bytes16",
          "name": "_newInterestRate",
          "type": "bytes16"
        },
        {
          "internalType": "bytes16",
          "name": "_newMultiplier",
          "type": "bytes16"
        },
        {
          "internalType": "uint256",
          "name": "_newLockTime",
          "type": "uint256"
        }
      ],
      "name": "updateTokenomics",
      "outputs": [],
      "stateMutability": "nonpayable",
      "type": "function"
    },
    {
      "inputs": [],
      "name": "yieldFarmingToken",
      "outputs": [
        {
          "internalType": "contract YieldFarmingToken",
          "name": "",
          "type": "address"
        }
      ],
      "stateMutability": "view",
      "type": "function"
    }
  ],
  "transactionHash": "0xdfbd3155cb98be3684e02260baf41a64f645e822664614c7b7dc71aecec5297f",
  "args": [
    "0x003Be5aa4EC80cA4CB7D9a6480956ee28AB50baa",
    "0x26601611C44Ed97ED3d2D6de6e73Fa5b1fed32cF",
    "0x9f0274acb85e14719D1C9f914FFc5413673f1Edf",
    "Interest Faster Than Light",
    "IFTL",
    "0x3ff647ae147ae147ae147ae147ae147a",
    "0x4026d1a94a2000000000000000000000",
    86400,
    [
      "0x6DBe275d4008000b39E12AD374a59AeC31CF5274",
      "0x150C1a134941cab797C1FCA4F33EC1246076c578",
      "0xc0320245f52C1a9b7d6D22E07B1fFAaE56AFA568",
      "0x7826833c65A4a99310175140A447Eb60eF296936"
    ],
    [
      10,
      10,
      30,
      50
    ]
  ],
  "solcInputHash": "e2d3b73ecb3d549aa64caf5d228f62d2",
  "bytecode": "0x6101006040523480156200001257600080fd5b506040516200471f3803806200471f8339810160408190526200003591620006ad565b8882826000620000446200020d565b600080546001600160a01b0319166001600160a01b0383169081178255604051929350917f8be0079c531659141344cd1fd0a4f28419497f9722a3daafe3b4186f6b6457e0908290a3508051825114620000bb5760405162461bcd60e51b8152600401620000b29062000927565b60405180910390fd5b6000825111620000df5760405162461bcd60e51b8152600401620000b29062000979565b60005b825181101562000163576200014e8382815181106200011157634e487b7160e01b600052603260045260246000fd5b60200260200101518383815181106200013a57634e487b7160e01b600052603260045260246000fd5b60200260200101516200021160201b60201c565b806200015a8162000a87565b915050620000e2565b50505060601b6001600160601b031916608052600380546001600160a01b0319166001600160a01b038c161790556200019e85858562000267565b8686604051620001ae906200050d565b620001bb9291906200082b565b604051809103906000f080158015620001d8573d6000803e3d6000fd5b506001600160601b0319606091821b811660c05298811b891660a0529890981b90961660e0525062000aea9650505050505050565b3390565b6200021b6200020d565b6001600160a01b03166200022e62000366565b6001600160a01b031614620002575760405162461bcd60e51b8152600401620000b290620008f2565b62000263828262000375565b5050565b620002716200020d565b6001600160a01b03166200028462000366565b6001600160a01b031614620002ad5760405162461bcd60e51b8152600401620000b290620008f2565b60048054608084811c600160801b029086901c6001600160801b0319909216919091176001600160801b0316178155600582905560035460408051630c4761ab60e11b815290516001600160a01b039092169263188ec356928282019260209290829003018186803b1580156200032357600080fd5b505afa15801562000338573d6000803e3d6000fd5b505050506040513d601f19601f820116820180604052508101906200035e9190620007cb565b600655505050565b6000546001600160a01b031690565b6001600160a01b0382166200039e5760405162461bcd60e51b8152600401620000b2906200085d565b60008111620003c15760405162461bcd60e51b8152600401620000b290620009b0565b620003cc82620004a5565b15620003ec5760405162461bcd60e51b8152600401620000b290620008a9565b6002805460018082019092557f405787fa12a823e0f2b7631cc41b3ba8828b3321ca811111fa75cd3aa3bb5ace0180546001600160a01b0319166001600160a01b03851690811790915560009081526020919091526040808220839055308252812080548392906200046090849062000a39565b90915550506040517f40c340f65e17194d14ddddb073d3c9f888e3cb52b5aae0c6c7706b4fbc905fac9062000499908490849062000812565b60405180910390a15050565b600080620004b383620004bc565b1190505b919050565b6000620004c982620004d0565b5192915050565b620004da6200051b565b506001600160a01b0316600090815260016020818152604092839020835180850190945280548452909101549082015290565b6112ef806200343083390190565b604051806040016040528060008152602001600081525090565b600082601f83011262000546578081fd5b815160206200055f620005598362000a13565b620009e7565b82815281810190858301838502870184018810156200057c578586fd5b855b85811015620005a7578151620005948162000ad1565b845292840192908401906001016200057e565b5090979650505050505050565b600082601f830112620005c5578081fd5b81516020620005d8620005598362000a13565b8281528181019085830183850287018401881015620005f5578586fd5b855b85811015620005a757815184529284019290840190600101620005f7565b80516001600160801b031981168114620004b757600080fd5b8051620004b78162000ad1565b600082601f8301126200064c578081fd5b81516001600160401b0381111562000668576200066862000abb565b6200067d601f8201601f1916602001620009e7565b81815284602083860101111562000692578283fd5b620006a582602083016020870162000a54565b949350505050565b6000806000806000806000806000806101408b8d031215620006cd578586fd5b620006d88b6200062e565b9950620006e860208c016200062e565b9850620006f860408c016200062e565b60608c01519098506001600160401b038082111562000715578788fd5b620007238e838f016200063b565b985060808d015191508082111562000739578788fd5b620007478e838f016200063b565b97506200075760a08e0162000615565b96506200076760c08e0162000615565b955060e08d015194506101008d015191508082111562000785578384fd5b620007938e838f0162000535565b93506101208d0151915080821115620007aa578283fd5b50620007b98d828e01620005b4565b9150509295989b9194979a5092959850565b600060208284031215620007dd578081fd5b5051919050565b60008151808452620007fe81602086016020860162000a54565b601f01601f19169290920160200192915050565b6001600160a01b03929092168252602082015260400190565b600060408252620008406040830185620007e4565b8281036020840152620008548185620007e4565b95945050505050565b6020808252602c908201527f5061796d656e7453706c69747465723a206163636f756e74206973207468652060408201526b7a65726f206164647265737360a01b606082015260800190565b60208082526029908201527f5061796d656e7453706c69747465723a206163636f756e7420697320616c726560408201526861647920706179656560b81b606082015260800190565b6020808252818101527f4f776e61626c653a2063616c6c6572206973206e6f7420746865206f776e6572604082015260600190565b60208082526032908201527f5061796d656e7453706c69747465723a2070617965657320616e6420736861726040820152710cae640d8cadccee8d040dad2e6dac2e8c6d60731b606082015260800190565b6020808252601a908201527f5061796d656e7453706c69747465723a206e6f20706179656573000000000000604082015260600190565b6020808252601d908201527f5061796d656e7453706c69747465723a20736861726573206172652030000000604082015260600190565b6040518181016001600160401b038111828210171562000a0b5762000a0b62000abb565b604052919050565b60006001600160401b0382111562000a2f5762000a2f62000abb565b5060209081020190565b6000821982111562000a4f5762000a4f62000aa5565b500190565b60005b8381101562000a7157818101518382015260200162000a57565b8381111562000a81576000848401525b50505050565b600060001982141562000a9e5762000a9e62000aa5565b5060010190565b634e487b7160e01b600052601160045260246000fd5b634e487b7160e01b600052604160045260246000fd5b6001600160a01b038116811462000ae757600080fd5b50565b60805160601c60a05160601c60c05160601c60e05160601c6128d962000b5760003960005050600081816106f3015281816107f301528181610a2901528181610c080152610ca701526000610cd30152600081816103d40152818161053f015261132701526128d96000f3fe60806040523480156200001157600080fd5b5060043610620001545760003560e01c8063715018a611620000c9578063a96f86681162000087578063a96f866814620002b8578063b6b55f2514620002c2578063ce7c2ac214620002d9578063e33b7de314620002f0578063efdc48f614620002fa578063f2fde38b14620003115762000154565b8063715018a6146200025f5780638b83209b14620002695780638da5cb5b14620002805780638fcb4e5b146200028a5780639852595c14620002a15762000154565b80633a98ef3911620001175780633a98ef3914620001f75780633ed35855146200021057806342966c68146200022757806346ffdf95146200023e5780635e36d0b214620002555762000154565b806318f9b0231462000159578063191655871462000172578063307c830314620001895780633465d6d514620001ab578063366653a914620001d1575b600080fd5b620001706200016a366004620017cb565b62000328565b005b6200017062000183366004620017ae565b62000387565b62000193620005a7565b604051620001a29190620018a9565b60405180910390f35b620001c2620001bc366004620017ae565b62000611565b604051620001a2919062001ddc565b620001e8620001e2366004620017ae565b62000652565b604051620001a29190620018fa565b6200020162000667565b604051620001a2919062001df3565b6200017062000221366004620017ae565b62000679565b620001706200023836600462001859565b620006cd565b620001706200024f366004620017cb565b6200079f565b62000193620007f1565b6200017062000815565b620001936200027a36600462001859565b620008a5565b62000193620008e6565b620001706200029b366004620017cb565b620008f5565b62000201620002b2366004620017ae565b620009f2565b6200017062000a09565b62000170620002d336600462001859565b62000b53565b62000201620002ea366004620017ae565b62000de8565b6200020162000dfc565b620001706200030b36600462001819565b62000e09565b6200017062000322366004620017ae565b62000f11565b6200033262000fdb565b6001600160a01b031662000345620008e6565b6001600160a01b031614620003775760405162461bcd60e51b81526004016200036e9062001cae565b60405180910390fd5b62000383828262000fdf565b5050565b620003928162000652565b620003b15760405162461bcd60e51b81526004016200036e90620019a6565b6000620003bd62000dfc565b6040516370a0823160e01b81526001600160a01b037f000000000000000000000000000000000000000000000000000000000000000016906370a08231906200040b903090600401620018a9565b60206040518083038186803b1580156200042457600080fd5b505afa15801562000439573d6000803e3d6000fd5b505050506040513d601f19601f820116820180604052508101906200045f919062001872565b6200046b919062001e69565b905060006200047a83620009f2565b6200048462000667565b6200048f8562000de8565b6200049b908562001ea5565b620004a7919062001e84565b620004b3919062001f0c565b905080620004d55760405162461bcd60e51b81526004016200036e9062001b58565b6001600160a01b038316600090815260016020819052604082200180548392906200050290849062001e69565b909155505030600090815260016020819052604082200180548392906200052b90849062001e69565b909155506200056790506001600160a01b037f000000000000000000000000000000000000000000000000000000000000000016848362001103565b7fdf20fd1e76bc69d672e4814fafb2c449bba3a5369d8359adf9e05e6fde87b05683826040516200059a929190620018e1565b60405180910390a1505050565b600080620005b462000fdb565b6001600160a01b0380821660009081526007602052604090205491925016620005f15760405162461bcd60e51b81526004016200036e9062001c40565b6001600160a01b0390811660009081526007602052604090205416905090565b6200061b62001755565b506001600160a01b03811660009081526001602081815260409283902083518085019094528054845290910154908201525b919050565b600080620006608362000de8565b1192915050565b6000620006743062000de8565b905090565b6200068362000fdb565b6001600160a01b031662000696620008e6565b6001600160a01b031614620006bf5760405162461bcd60e51b81526004016200036e9062001cae565b620006ca8162001162565b50565b6000620006d962000fdb565b60405163079cc67960e41b81529091506001600160a01b037f000000000000000000000000000000000000000000000000000000000000000016906379cc6790906200072c9084908690600401620018e1565b600060405180830381600087803b1580156200074757600080fd5b505af11580156200075c573d6000803e3d6000fd5b505050507f5cb478659d0e1ed4c130006cb061387f6196e1153404d1e4ea0124aabe3798ac818360405162000793929190620018e1565b60405180910390a15050565b620007a962000fdb565b6001600160a01b0316620007bc620008e6565b6001600160a01b031614620007e55760405162461bcd60e51b81526004016200036e9062001cae565b62000383828262001219565b7f000000000000000000000000000000000000000000000000000000000000000081565b6200081f62000fdb565b6001600160a01b031662000832620008e6565b6001600160a01b0316146200085b5760405162461bcd60e51b81526004016200036e9062001cae565b600080546040516001600160a01b03909116907f8be0079c531659141344cd1fd0a4f28419497f9722a3daafe3b4186f6b6457e0908390a3600080546001600160a01b0319169055565b6000600180018281548110620008cb57634e487b7160e01b600052603260045260246000fd5b6000918252602090912001546001600160a01b031692915050565b6000546001600160a01b031690565b60006200090162000fdb565b90506200090e8162000652565b6200092d5760405162461bcd60e51b81526004016200036e9062001ba3565b81620009398262000de8565b10156200095a5760405162461bcd60e51b81526004016200036e90620019ed565b6200097d81836200096b8462000de8565b62000977919062001f0c565b62001219565b620009888362000652565b15620009b157620009ab83836200099f8662000de8565b62000977919062001e69565b620009bd565b620009bd838362000fdf565b7f99c01cd4f8275976ef33d24514b1694c8a9d5730d92e26996834343e09778e998184846040516200059a93929190620018bd565b6000620009ff8262000611565b6020015192915050565b600062000a1562000fdb565b9050600062000a23620005a7565b905060007f00000000000000000000000000000000000000000000000000000000000000006001600160a01b03166370a08231836040518263ffffffff1660e01b815260040162000a759190620018a9565b60206040518083038186803b15801562000a8e57600080fd5b505afa15801562000aa3573d6000803e3d6000fd5b505050506040513d601f19601f8201168201806040525081019062000ac9919062001872565b9050816001600160a01b03166386d1a69f6040518163ffffffff1660e01b8152600401600060405180830381600087803b15801562000b0757600080fd5b505af115801562000b1c573d6000803e3d6000fd5b505050507fc171a40b932e975803a0d30e6180781ee556ed7615553185347606a918764ca183826040516200059a929190620018e1565b600062000b5f62000fdb565b905062000b6d818362001319565b60035460408051630c4761ab60e11b815290516000926001600160a01b03169163188ec356916004808301926020929190829003018186803b15801562000bb357600080fd5b505afa15801562000bc8573d6000803e3d6000fd5b505050506040513d601f19601f8201168201806040525081019062000bee919062001872565b6003546005549192506000916001600160a01b03909116907f000000000000000000000000000000000000000000000000000000000000000090859062000c36908662001e69565b60405162000c44906200176f565b62000c53949392919062001905565b604051809103906000f08015801562000c70573d6000803e3d6000fd5b506001600160a01b03848116600090815260076020526040902080546001600160a01b0319168383161790556004546006549293507f00000000000000000000000000000000000000000000000000000000000000008216926340c10f199285927f000000000000000000000000000000000000000000000000000000000000000090911691639868a60c918a91600160801b8204608090811b92901b9062000d1a908b62001f0c565b6040518563ffffffff1660e01b815260040162000d3b949392919062001dfc565b60206040518083038186803b15801562000d5457600080fd5b505afa15801562000d69573d6000803e3d6000fd5b505050506040513d601f19601f8201168201806040525081019062000d8f919062001872565b6040518363ffffffff1660e01b815260040162000dae929190620018e1565b600060405180830381600087803b15801562000dc957600080fd5b505af115801562000dde573d6000803e3d6000fd5b5050505050505050565b600062000df58262000611565b5192915050565b60006200067430620009f2565b62000e1362000fdb565b6001600160a01b031662000e26620008e6565b6001600160a01b03161462000e4f5760405162461bcd60e51b81526004016200036e9062001cae565b60048054608084811c600160801b029086901c6001600160801b0319909216919091176fffffffffffffffffffffffffffffffff16178155600582905560035460408051630c4761ab60e11b815290516001600160a01b039092169263188ec356928282019260209290829003018186803b15801562000ece57600080fd5b505afa15801562000ee3573d6000803e3d6000fd5b505050506040513d601f19601f8201168201806040525081019062000f09919062001872565b600655505050565b62000f1b62000fdb565b6001600160a01b031662000f2e620008e6565b6001600160a01b03161462000f575760405162461bcd60e51b81526004016200036e9062001cae565b6001600160a01b03811662000f805760405162461bcd60e51b81526004016200036e9062001a83565b600080546040516001600160a01b03808516939216917f8be0079c531659141344cd1fd0a4f28419497f9722a3daafe3b4186f6b6457e091a3600080546001600160a01b0319166001600160a01b0392909216919091179055565b3390565b6001600160a01b038216620010085760405162461bcd60e51b81526004016200036e9062001a37565b600081116200102b5760405162461bcd60e51b81526004016200036e9062001da5565b620010368262000652565b15620010565760405162461bcd60e51b81526004016200036e9062001ac9565b6002805460018082019092557f405787fa12a823e0f2b7631cc41b3ba8828b3321ca811111fa75cd3aa3bb5ace0180546001600160a01b0319166001600160a01b0385169081179091556000908152602091909152604080822083905530825281208054839290620010ca90849062001e69565b90915550506040517f40c340f65e17194d14ddddb073d3c9f888e3cb52b5aae0c6c7706b4fbc905fac90620007939084908490620018e1565b6200115d8363a9059cbb60e01b848460405160240162001125929190620018e1565b60408051601f198184030181529190526020810180516001600160e01b03166001600160e01b03199093169290921790915262001383565b505050565b600254620011845760405162461bcd60e51b81526004016200036e9062001ce3565b6000620011918262000611565b6001600160a01b0383166000908152600160208190526040822082815501559050620011bf6002836200141a565b80513060009081526001602052604081208054909190620011e290849062001f0c565b90915550506040517fc2ee819acfe1baf117c2aac9d3f627a864f075d2fecc990eebd82d59f26626059062000793908490620018a9565b620012248262000652565b620012435760405162461bcd60e51b81526004016200036e9062001c77565b806200125a57620012548262001162565b62000383565b80620012668362000de8565b1415620012875760405162461bcd60e51b81526004016200036e9062001beb565b6000620012948362000de8565b620012a0908362001ec7565b6001600160a01b038416600090815260016020526040808220859055308252902054909150620012d290829062001e22565b306000908152600160205260409081902091909155517fb309421c365a9d0a93013157ebb019e68b808bab098cce6a7bdec150a6857a43906200059a9085908490620018e1565b620013506001600160a01b037f0000000000000000000000000000000000000000000000000000000000000000168330846200148c565b7f95dabc2c18727d8869745ab20c77624af79f7b1376130fb395fcb46c22274db9828260405162000793929190620018e1565b6000620013da826040518060400160405280602081526020017f5361666545524332303a206c6f772d6c6576656c2063616c6c206661696c6564815250856001600160a01b0316620014b69092919063ffffffff16565b8051909150156200115d5780806020019051810190620013fb9190620017f7565b6200115d5760405162461bcd60e51b81526004016200036e9062001d5b565b620003838262001486848054806020026020016040519081016040528092919081815260200182805480156200147a57602002820191906000526020600020905b81546001600160a01b031681526001909101906020018083116200145b575b505050505084620014d1565b62001560565b620014b0846323b872dd60e01b8585856040516024016200112593929190620018bd565b50505050565b6060620014c7848460008562001643565b90505b9392505050565b6000805b83518110156200153f57826001600160a01b03168482815181106200150a57634e487b7160e01b600052603260045260246000fd5b60200260200101516001600160a01b031614156200152a5790506200155a565b80620015368162001f55565b915050620014d5565b5060405162461bcd60e51b81526004016200036e9062001964565b92915050565b81548290620015729060019062001f0c565b815481106200159157634e487b7160e01b600052603260045260246000fd5b9060005260206000200160009054906101000a90046001600160a01b0316828281548110620015d057634e487b7160e01b600052603260045260246000fd5b9060005260206000200160006101000a8154816001600160a01b0302191690836001600160a01b03160217905550818054806200161d57634e487b7160e01b600052603160045260246000fd5b600082815260209020810160001990810180546001600160a01b03191690550190555050565b606082471015620016685760405162461bcd60e51b81526004016200036e9062001b12565b620016738562001711565b620016925760405162461bcd60e51b81526004016200036e9062001d24565b600080866001600160a01b03168587604051620016b091906200188b565b60006040518083038185875af1925050503d8060008114620016ef576040519150601f19603f3d011682016040523d82523d6000602084013e620016f4565b606091505b50915091506200170682828662001717565b979650505050505050565b3b151590565b6060831562001728575081620014ca565b825115620017395782518084602001fd5b8160405162461bcd60e51b81526004016200036e91906200192f565b604051806040016040528060008152602001600081525090565b61091a8062001f8a83390190565b80356001600160a01b03811681146200064d57600080fd5b80356001600160801b0319811681146200064d57600080fd5b600060208284031215620017c0578081fd5b620014ca826200177d565b60008060408385031215620017de578081fd5b620017e9836200177d565b946020939093013593505050565b60006020828403121562001809578081fd5b81518015158114620014ca578182fd5b6000806000606084860312156200182e578081fd5b620018398462001795565b9250620018496020850162001795565b9150604084013590509250925092565b6000602082840312156200186b578081fd5b5035919050565b60006020828403121562001884578081fd5b5051919050565b600082516200189f81846020870162001f26565b9190910192915050565b6001600160a01b0391909116815260200190565b6001600160a01b039384168152919092166020820152604081019190915260600190565b6001600160a01b03929092168252602082015260400190565b901515815260200190565b6001600160a01b039485168152928416602084015292166040820152606081019190915260800190565b60006020825282518060208401526200195081604085016020870162001f26565b601f01601f19169190910160400192915050565b60208082526022908201527f5061796d656e7453706c69747465723a206163636f756e74206e6f7420666f756040820152611b9960f21b606082015260800190565b60208082526027908201527f5061796d656e7453706c69747465723a206163636f756e74206973206e6f74206040820152666120706179656560c81b606082015260800190565b6020808252602a908201527f5061796d656e7453706c69747465723a206e6f7420656e6f756768207368617260408201526965732062616c616e636560b01b606082015260800190565b6020808252602c908201527f5061796d656e7453706c69747465723a206163636f756e74206973207468652060408201526b7a65726f206164647265737360a01b606082015260800190565b60208082526026908201527f4f776e61626c653a206e6577206f776e657220697320746865207a65726f206160408201526564647265737360d01b606082015260800190565b60208082526029908201527f5061796d656e7453706c69747465723a206163636f756e7420697320616c726560408201526861647920706179656560b81b606082015260800190565b60208082526026908201527f416464726573733a20696e73756666696369656e742062616c616e636520666f6040820152651c8818d85b1b60d21b606082015260800190565b6020808252602b908201527f5061796d656e7453706c69747465723a206163636f756e74206973206e6f742060408201526a191d59481c185e5b595b9d60aa1b606082015260800190565b60208082526028908201527f5061796d656e7453706c69747465723a207472616e73666572726572206e6f74604082015267206120706179656560c01b606082015260800190565b60208082526035908201527f5061796d656e7453706c69747465723a206163636f756e7420616c7265616479604082015274206861732074686174206d616e792073686172657360581b606082015260800190565b60208082526018908201527f546f6b656e54696d654c6f636b206e6f7420666f756e64210000000000000000604082015260600190565b6020808252601c908201527f5061796d656e7453706c69747465723a206e6f74206120706179656500000000604082015260600190565b6020808252818101527f4f776e61626c653a2063616c6c6572206973206e6f7420746865206f776e6572604082015260600190565b60208082526021908201527f5061796d656e7453706c69747465723a20656d707479207061796565206c69736040820152601d60fa1b606082015260800190565b6020808252601d908201527f416464726573733a2063616c6c20746f206e6f6e2d636f6e7472616374000000604082015260600190565b6020808252602a908201527f5361666545524332303a204552433230206f7065726174696f6e20646964206e6040820152691bdd081cdd58d8d9595960b21b606082015260800190565b6020808252601d908201527f5061796d656e7453706c69747465723a20736861726573206172652030000000604082015260600190565b815181526020918201519181019190915260400190565b90815260200190565b9384526001600160801b0319928316602085015291166040830152606082015260800190565b600080821280156001600160ff1b038490038513161562001e475762001e4762001f73565b600160ff1b839003841281161562001e635762001e6362001f73565b50500190565b6000821982111562001e7f5762001e7f62001f73565b500190565b60008262001ea057634e487b7160e01b81526012600452602481fd5b500490565b600081600019048311821515161562001ec25762001ec262001f73565b500290565b60008083128015600160ff1b85018412161562001ee85762001ee862001f73565b6001600160ff1b038401831381161562001f065762001f0662001f73565b50500390565b60008282101562001f215762001f2162001f73565b500390565b60005b8381101562001f4357818101518382015260200162001f29565b83811115620014b05750506000910152565b600060001982141562001f6c5762001f6c62001f73565b5060010190565b634e487b7160e01b600052601160045260246000fdfe60e060405234801561001057600080fd5b5060405161091a38038061091a83398101604081905261002f9161010e565b600080546001600160a01b0319166001600160a01b03868116919091179182905560408051630c4761ab60e11b81529051929091169163188ec35691600480820192602092909190829003018186803b15801561008b57600080fd5b505afa15801561009f573d6000803e3d6000fd5b505050506040513d601f19601f820116820180604052508101906100c39190610160565b81116100ea5760405162461bcd60e51b81526004016100e190610178565b60405180910390fd5b6001600160601b0319606093841b81166080529190921b1660a05260c052506101e2565b60008060008060808587031215610123578384fd5b845161012e816101ca565b602086015190945061013f816101ca565b6040860151909350610150816101ca565b6060959095015193969295505050565b600060208284031215610171578081fd5b5051919050565b60208082526032908201527f546f6b656e54696d654c6f636b3a2072656c656173652074696d65206973206260408201527165666f72652063757272656e742074696d6560701b606082015260800190565b6001600160a01b03811681146101df57600080fd5b50565b60805160601c60a05160601c60c051610704610216600039600061023d0152600060980152600061026101526107046000f3fe608060405234801561001057600080fd5b506004361061004c5760003560e01c806338af3eed1461005157806386d1a69f1461006f578063b91d400114610079578063fc0c546a1461008e575b600080fd5b610059610096565b60405161006691906104d9565b60405180910390f35b6100776100ba565b005b61008161023b565b6040516100669190610695565b61005961025f565b7f000000000000000000000000000000000000000000000000000000000000000090565b6100c261023b565b60008054906101000a90046001600160a01b03166001600160a01b031663188ec3566040518163ffffffff1660e01b815260040160206040518083038186803b15801561010e57600080fd5b505afa158015610122573d6000803e3d6000fd5b505050506040513d601f19601f8201168201806040525081019061014691906104a5565b101561016d5760405162461bcd60e51b8152600401610164906105c2565b60405180910390fd5b600061017761025f565b6001600160a01b03166370a08231306040518263ffffffff1660e01b81526004016101a291906104d9565b60206040518083038186803b1580156101ba57600080fd5b505afa1580156101ce573d6000803e3d6000fd5b505050506040513d601f19601f820116820180604052508101906101f291906104a5565b9050600081116102145760405162461bcd60e51b815260040161016490610539565b61023861021f610096565b8261022861025f565b6001600160a01b03169190610283565b50565b7f000000000000000000000000000000000000000000000000000000000000000090565b7f000000000000000000000000000000000000000000000000000000000000000090565b6102d98363a9059cbb60e01b84846040516024016102a29291906104ed565b60408051601f198184030181529190526020810180516001600160e01b03166001600160e01b0319909316929092179091526102de565b505050565b6000610333826040518060400160405280602081526020017f5361666545524332303a206c6f772d6c6576656c2063616c6c206661696c6564815250856001600160a01b031661036d9092919063ffffffff16565b8051909150156102d957808060200190518101906103519190610485565b6102d95760405162461bcd60e51b81526004016101649061064b565b606061037c8484600085610386565b90505b9392505050565b6060824710156103a85760405162461bcd60e51b81526004016101649061057c565b6103b185610446565b6103cd5760405162461bcd60e51b815260040161016490610614565b600080866001600160a01b031685876040516103e991906104bd565b60006040518083038185875af1925050503d8060008114610426576040519150601f19603f3d011682016040523d82523d6000602084013e61042b565b606091505b509150915061043b82828661044c565b979650505050505050565b3b151590565b6060831561045b57508161037f565b82511561046b5782518084602001fd5b8160405162461bcd60e51b81526004016101649190610506565b600060208284031215610496578081fd5b8151801515811461037f578182fd5b6000602082840312156104b6578081fd5b5051919050565b600082516104cf81846020870161069e565b9190910192915050565b6001600160a01b0391909116815260200190565b6001600160a01b03929092168252602082015260400190565b600060208252825180602084015261052581604085016020870161069e565b601f01601f19169190910160400192915050565b60208082526023908201527f546f6b656e54696d654c6f636b3a206e6f20746f6b656e7320746f2072656c6560408201526261736560e81b606082015260800190565b60208082526026908201527f416464726573733a20696e73756666696369656e742062616c616e636520666f6040820152651c8818d85b1b60d21b606082015260800190565b60208082526032908201527f546f6b656e54696d654c6f636b3a2063757272656e742074696d65206973206260408201527165666f72652072656c656173652074696d6560701b606082015260800190565b6020808252601d908201527f416464726573733a2063616c6c20746f206e6f6e2d636f6e7472616374000000604082015260600190565b6020808252602a908201527f5361666545524332303a204552433230206f7065726174696f6e20646964206e6040820152691bdd081cdd58d8d9595960b21b606082015260800190565b90815260200190565b60005b838110156106b95781810151838201526020016106a1565b838111156106c8576000848401525b5050505056fea2646970667358221220f0c86b2f3f50698066c3b0e3ce3dae8b016865c7df3e0c81ebeea84094bdfabc64736f6c63430008000033a26469706673582212206352b12641a4041d673907fb39241b4a75b083900973729e254f56cb3ef3463e64736f6c6343000800003360806040523480156200001157600080fd5b50604051620012ef380380620012ef833981016040819052620000349162000223565b8151829082906200004d906003906020850190620000d2565b50805162000063906004906020840190620000d2565b505050600062000078620000ce60201b60201c565b600580546001600160a01b0319166001600160a01b038316908117909155604051919250906000907f8be0079c531659141344cd1fd0a4f28419497f9722a3daafe3b4186f6b6457e0908290a3505050620002dd565b3390565b828054620000e0906200028a565b90600052602060002090601f0160209004810192826200010457600085556200014f565b82601f106200011f57805160ff19168380011785556200014f565b828001600101855582156200014f579182015b828111156200014f57825182559160200191906001019062000132565b506200015d92915062000161565b5090565b5b808211156200015d576000815560010162000162565b600082601f83011262000189578081fd5b81516001600160401b0380821115620001a657620001a6620002c7565b6040516020601f8401601f1916820181018381118382101715620001ce57620001ce620002c7565b6040528382528584018101871015620001e5578485fd5b8492505b83831015620002085785830181015182840182015291820191620001e9565b838311156200021957848185840101525b5095945050505050565b6000806040838503121562000236578182fd5b82516001600160401b03808211156200024d578384fd5b6200025b8683870162000178565b9350602085015191508082111562000271578283fd5b50620002808582860162000178565b9150509250929050565b6002810460018216806200029f57607f821691505b60208210811415620002c157634e487b7160e01b600052602260045260246000fd5b50919050565b634e487b7160e01b600052604160045260246000fd5b61100280620002ed6000396000f3fe608060405234801561001057600080fd5b506004361061010b5760003560e01c806370a08231116100a257806395d89b411161007157806395d89b4114610209578063a457c2d714610211578063a9059cbb14610224578063dd62ed3e14610237578063f2fde38b1461024a5761010b565b806370a08231146101c6578063715018a6146101d957806379cc6790146101e15780638da5cb5b146101f45761010b565b8063313ce567116100de578063313ce56714610176578063395093511461018b57806340c10f191461019e57806342966c68146101b35761010b565b806306fdde0314610110578063095ea7b31461012e57806318160ddd1461014e57806323b872dd14610163575b600080fd5b61011861025d565b6040516101259190610b88565b60405180910390f35b61014161013c366004610b28565b6102ef565b6040516101259190610b7d565b61015661030c565b6040516101259190610f35565b610141610171366004610aed565b610312565b61017e6103b2565b6040516101259190610f3e565b610141610199366004610b28565b6103b7565b6101b16101ac366004610b28565b610406565b005b6101b16101c1366004610b51565b610453565b6101566101d4366004610a9a565b610467565b6101b1610486565b6101b16101ef366004610b28565b61050f565b6101fc610564565b6040516101259190610b69565b610118610573565b61014161021f366004610b28565b610582565b610141610232366004610b28565b6105fd565b610156610245366004610abb565b610611565b6101b1610258366004610a9a565b61063c565b60606003805461026c90610f7b565b80601f016020809104026020016040519081016040528092919081815260200182805461029890610f7b565b80156102e55780601f106102ba576101008083540402835291602001916102e5565b820191906000526020600020905b8154815290600101906020018083116102c857829003601f168201915b5050505050905090565b60006103036102fc6106fd565b8484610701565b50600192915050565b60025490565b600061031f8484846107b5565b6001600160a01b0384166000908152600160205260408120816103406106fd565b6001600160a01b03166001600160a01b031681526020019081526020016000205490508281101561038c5760405162461bcd60e51b815260040161038390610d2e565b60405180910390fd5b6103a7856103986106fd565b6103a28685610f64565b610701565b506001949350505050565b601290565b60006103036103c46106fd565b8484600160006103d26106fd565b6001600160a01b03908116825260208083019390935260409182016000908120918b16815292529020546103a29190610f4c565b61040e6106fd565b6001600160a01b031661041f610564565b6001600160a01b0316146104455760405162461bcd60e51b815260040161038390610d76565b61044f82826108dd565b5050565b61046461045e6106fd565b8261099d565b50565b6001600160a01b0381166000908152602081905260409020545b919050565b61048e6106fd565b6001600160a01b031661049f610564565b6001600160a01b0316146104c55760405162461bcd60e51b815260040161038390610d76565b6005546040516000916001600160a01b0316907f8be0079c531659141344cd1fd0a4f28419497f9722a3daafe3b4186f6b6457e0908390a3600580546001600160a01b0319169055565b600061051d836102456106fd565b90508181101561053f5760405162461bcd60e51b815260040161038390610dab565b6105558361054b6106fd565b6103a28585610f64565b61055f838361099d565b505050565b6005546001600160a01b031690565b60606004805461026c90610f7b565b600080600160006105916106fd565b6001600160a01b03908116825260208083019390935260409182016000908120918816815292529020549050828110156105dd5760405162461bcd60e51b815260040161038390610eb9565b6105f36105e86106fd565b856103a28685610f64565b5060019392505050565b600061030361060a6106fd565b84846107b5565b6001600160a01b03918216600090815260016020908152604080832093909416825291909152205490565b6106446106fd565b6001600160a01b0316610655610564565b6001600160a01b03161461067b5760405162461bcd60e51b815260040161038390610d76565b6001600160a01b0381166106a15760405162461bcd60e51b815260040161038390610c60565b6005546040516001600160a01b038084169216907f8be0079c531659141344cd1fd0a4f28419497f9722a3daafe3b4186f6b6457e090600090a3600580546001600160a01b0319166001600160a01b0392909216919091179055565b3390565b6001600160a01b0383166107275760405162461bcd60e51b815260040161038390610e75565b6001600160a01b03821661074d5760405162461bcd60e51b815260040161038390610ca6565b6001600160a01b0380841660008181526001602090815260408083209487168084529490915290819020849055517f8c5be1e5ebec7d5bd14f71427d1e84f3dd0314c0f7b2291e5b200ac8c7c3b925906107a8908590610f35565b60405180910390a3505050565b6001600160a01b0383166107db5760405162461bcd60e51b815260040161038390610e30565b6001600160a01b0382166108015760405162461bcd60e51b815260040161038390610bdb565b61080c83838361055f565b6001600160a01b038316600090815260208190526040902054818110156108455760405162461bcd60e51b815260040161038390610ce8565b61084f8282610f64565b6001600160a01b038086166000908152602081905260408082209390935590851681529081208054849290610885908490610f4c565b92505081905550826001600160a01b0316846001600160a01b03167fddf252ad1be2c89b69c2b068fc378daa952ba7f163c4a11628f55a4df523b3ef846040516108cf9190610f35565b60405180910390a350505050565b6001600160a01b0382166109035760405162461bcd60e51b815260040161038390610efe565b61090f6000838361055f565b80600260008282546109219190610f4c565b90915550506001600160a01b0382166000908152602081905260408120805483929061094e908490610f4c565b90915550506040516001600160a01b038316906000907fddf252ad1be2c89b69c2b068fc378daa952ba7f163c4a11628f55a4df523b3ef90610991908590610f35565b60405180910390a35050565b6001600160a01b0382166109c35760405162461bcd60e51b815260040161038390610def565b6109cf8260008361055f565b6001600160a01b03821660009081526020819052604090205481811015610a085760405162461bcd60e51b815260040161038390610c1e565b610a128282610f64565b6001600160a01b03841660009081526020819052604081209190915560028054849290610a40908490610f64565b90915550506040516000906001600160a01b038516907fddf252ad1be2c89b69c2b068fc378daa952ba7f163c4a11628f55a4df523b3ef906107a8908690610f35565b80356001600160a01b038116811461048157600080fd5b600060208284031215610aab578081fd5b610ab482610a83565b9392505050565b60008060408385031215610acd578081fd5b610ad683610a83565b9150610ae460208401610a83565b90509250929050565b600080600060608486031215610b01578081fd5b610b0a84610a83565b9250610b1860208501610a83565b9150604084013590509250925092565b60008060408385031215610b3a578182fd5b610b4383610a83565b946020939093013593505050565b600060208284031215610b62578081fd5b5035919050565b6001600160a01b0391909116815260200190565b901515815260200190565b6000602080835283518082850152825b81811015610bb457858101830151858201604001528201610b98565b81811115610bc55783604083870101525b50601f01601f1916929092016040019392505050565b60208082526023908201527f45524332303a207472616e7366657220746f20746865207a65726f206164647260408201526265737360e81b606082015260800190565b60208082526022908201527f45524332303a206275726e20616d6f756e7420657863656564732062616c616e604082015261636560f01b606082015260800190565b60208082526026908201527f4f776e61626c653a206e6577206f776e657220697320746865207a65726f206160408201526564647265737360d01b606082015260800190565b60208082526022908201527f45524332303a20617070726f766520746f20746865207a65726f206164647265604082015261737360f01b606082015260800190565b60208082526026908201527f45524332303a207472616e7366657220616d6f756e7420657863656564732062604082015265616c616e636560d01b606082015260800190565b60208082526028908201527f45524332303a207472616e7366657220616d6f756e74206578636565647320616040820152676c6c6f77616e636560c01b606082015260800190565b6020808252818101527f4f776e61626c653a2063616c6c6572206973206e6f7420746865206f776e6572604082015260600190565b60208082526024908201527f45524332303a206275726e20616d6f756e74206578636565647320616c6c6f77604082015263616e636560e01b606082015260800190565b60208082526021908201527f45524332303a206275726e2066726f6d20746865207a65726f206164647265736040820152607360f81b606082015260800190565b60208082526025908201527f45524332303a207472616e736665722066726f6d20746865207a65726f206164604082015264647265737360d81b606082015260800190565b60208082526024908201527f45524332303a20617070726f76652066726f6d20746865207a65726f206164646040820152637265737360e01b606082015260800190565b60208082526025908201527f45524332303a2064656372656173656420616c6c6f77616e63652062656c6f77604082015264207a65726f60d81b606082015260800190565b6020808252601f908201527f45524332303a206d696e7420746f20746865207a65726f206164647265737300604082015260600190565b90815260200190565b60ff91909116815260200190565b60008219821115610f5f57610f5f610fb6565b500190565b600082821015610f7657610f76610fb6565b500390565b600281046001821680610f8f57607f821691505b60208210811415610fb057634e487b7160e01b600052602260045260246000fd5b50919050565b634e487b7160e01b600052601160045260246000fdfea2646970667358221220dfcd22be314ee4e2f82a9ff983f1140f0667cd60bd850012541174bc185606bb64736f6c63430008000033",
  "devdoc": {
    "kind": "dev",
    "methods": {
      "addPayee(address,uint256)": {
        "details": "Add a new payee to the contract.",
        "params": {
          "_shares": "The number of shares owned by the payee.",
          "account": "The address of the payee to add."
        }
      },
      "owner()": {
        "details": "Returns the address of the current owner."
      },
      "payee(uint256)": {
        "details": "Getter for the address of the payee number `index`."
      },
      "record(address)": {
        "details": "Getter for the amount of shares held by an account."
      },
      "release(address)": {
        "details": "Triggers a transfer to `account` of the amount of tokens they are owed, according to their percentage of the total shares and their previous withdrawals."
      },
      "released(address)": {
        "details": "Getter for the amount of Tokens already released to a payee."
      },
      "removePayee(address)": {
        "details": "Remove a payee from the contract.",
        "params": {
          "account": "The address of the payee to remove."
        }
      },
      "renounceOwnership()": {
        "details": "Leaves the contract without owner. It will not be possible to call `onlyOwner` functions anymore. Can only be called by the current owner. NOTE: Renouncing ownership will leave the contract without an owner, thereby removing any functionality that is only available to the owner."
      },
      "shares(address)": {
        "details": "Getter for the amount of shares held by an account."
      },
      "totalReleased()": {
        "details": "Getter for the total amount of Tokens already released."
      },
      "totalShares()": {
        "details": "Getter for the total shares held by payees."
      },
      "transferOwnership(address)": {
        "details": "Transfers ownership of the contract to a new account (`newOwner`). Can only be called by the current owner."
      },
      "transferShares(address,uint256)": {
        "details": "Transfer shares.",
        "params": {
          "sharesAmount": "The number of shares to be transfered by the transferrer.",
          "to": "The address of the shares destinatary to transfer to."
        }
      },
      "updatePayee(address,uint256)": {
        "details": "Add a new payee to the contract.",
        "params": {
          "_shares": "The number of shares owned by the payee.",
          "account": "The address of the payee to add."
        }
      }
    },
    "version": 1
  },
  "userdoc": {
    "kind": "user",
    "methods": {},
    "version": 1
  },
  "storageLayout": {
    "storage": [
      {
        "astId": 7,
        "contract": "contracts/YieldFarming.sol:YieldFarming",
        "label": "_owner",
        "offset": 0,
        "slot": "0",
        "type": "t_address"
      },
      {
        "astId": 1735,
        "contract": "contracts/YieldFarming.sol:YieldFarming",
        "label": "payeeArchive",
        "offset": 0,
        "slot": "1",
        "type": "t_struct(RecordArchive)1685_storage"
      },
      {
        "astId": 2654,
        "contract": "contracts/YieldFarming.sol:YieldFarming",
        "label": "timestamp",
        "offset": 0,
        "slot": "3",
        "type": "t_contract(Timestamp)2491"
      },
      {
        "astId": 2665,
        "contract": "contracts/YieldFarming.sol:YieldFarming",
        "label": "interestRate",
        "offset": 0,
        "slot": "4",
        "type": "t_bytes16"
      },
      {
        "astId": 2667,
        "contract": "contracts/YieldFarming.sol:YieldFarming",
        "label": "multiplier",
        "offset": 16,
        "slot": "4",
        "type": "t_bytes16"
      },
      {
        "astId": 2669,
        "contract": "contracts/YieldFarming.sol:YieldFarming",
        "label": "lockTime",
        "offset": 0,
        "slot": "5",
        "type": "t_uint256"
      },
      {
        "astId": 2671,
        "contract": "contracts/YieldFarming.sol:YieldFarming",
        "label": "tokenomicsTimestamp",
        "offset": 0,
        "slot": "6",
        "type": "t_uint256"
      },
      {
        "astId": 2676,
        "contract": "contracts/YieldFarming.sol:YieldFarming",
        "label": "tokenTimeLocks",
        "offset": 0,
        "slot": "7",
        "type": "t_mapping(t_address,t_contract(TokenTimeLock)2619)"
      }
    ],
    "types": {
      "t_address": {
        "encoding": "inplace",
        "label": "address",
        "numberOfBytes": "20"
      },
      "t_array(t_address)dyn_storage": {
        "base": "t_address",
        "encoding": "dynamic_array",
        "label": "address[]",
        "numberOfBytes": "32"
      },
      "t_bytes16": {
        "encoding": "inplace",
        "label": "bytes16",
        "numberOfBytes": "16"
      },
      "t_contract(Timestamp)2491": {
        "encoding": "inplace",
        "label": "contract Timestamp",
        "numberOfBytes": "20"
      },
      "t_contract(TokenTimeLock)2619": {
        "encoding": "inplace",
        "label": "contract TokenTimeLock",
        "numberOfBytes": "20"
      },
      "t_mapping(t_address,t_contract(TokenTimeLock)2619)": {
        "encoding": "mapping",
        "key": "t_address",
        "label": "mapping(address => contract TokenTimeLock)",
        "numberOfBytes": "32",
        "value": "t_contract(TokenTimeLock)2619"
      },
      "t_mapping(t_address,t_struct(Record)1676_storage)": {
        "encoding": "mapping",
        "key": "t_address",
        "label": "mapping(address => struct Record)",
        "numberOfBytes": "32",
        "value": "t_struct(Record)1676_storage"
      },
      "t_struct(Record)1676_storage": {
        "encoding": "inplace",
        "label": "struct Record",
        "members": [
          {
            "astId": 1673,
            "contract": "contracts/YieldFarming.sol:YieldFarming",
            "label": "shares",
            "offset": 0,
            "slot": "0",
            "type": "t_uint256"
          },
          {
            "astId": 1675,
            "contract": "contracts/YieldFarming.sol:YieldFarming",
            "label": "released",
            "offset": 0,
            "slot": "1",
            "type": "t_uint256"
          }
        ],
        "numberOfBytes": "64"
      },
      "t_struct(RecordArchive)1685_storage": {
        "encoding": "inplace",
        "label": "struct RecordArchive",
        "members": [
          {
            "astId": 1681,
            "contract": "contracts/YieldFarming.sol:YieldFarming",
            "label": "records",
            "offset": 0,
            "slot": "0",
            "type": "t_mapping(t_address,t_struct(Record)1676_storage)"
          },
          {
            "astId": 1684,
            "contract": "contracts/YieldFarming.sol:YieldFarming",
            "label": "addresses",
            "offset": 0,
            "slot": "1",
            "type": "t_array(t_address)dyn_storage"
          }
        ],
        "numberOfBytes": "64"
      },
      "t_uint256": {
        "encoding": "inplace",
        "label": "uint256",
        "numberOfBytes": "32"
      }
    }
  }
}